{
  "abi": [
    {
      "type": "function",
      "name": "BORROWER_ROLE",
      "inputs": [],
      "outputs": [
        {
          "name": "",
          "type": "bytes32",
          "internalType": "bytes32"
        }
      ],
      "stateMutability": "view"
    },
    {
      "type": "function",
      "name": "DEFAULT_ADMIN_ROLE",
      "inputs": [],
      "outputs": [
        {
          "name": "",
          "type": "bytes32",
          "internalType": "bytes32"
        }
      ],
      "stateMutability": "view"
    },
    {
      "type": "function",
      "name": "DEPLOYER_ROLE",
      "inputs": [],
      "outputs": [
        {
          "name": "",
          "type": "bytes32",
          "internalType": "bytes32"
        }
      ],
      "stateMutability": "view"
    },
    {
      "type": "function",
      "name": "UPGRADE_INTERFACE_VERSION",
      "inputs": [],
      "outputs": [
        {
          "name": "",
          "type": "string",
          "internalType": "string"
        }
      ],
      "stateMutability": "view"
    },
    {
      "type": "function",
      "name": "allowance",
      "inputs": [
        {
          "name": "owner",
          "type": "address",
          "internalType": "address"
        },
        {
          "name": "spender",
          "type": "address",
          "internalType": "address"
        }
      ],
      "outputs": [
        {
          "name": "",
          "type": "uint256",
          "internalType": "uint256"
        }
      ],
      "stateMutability": "view"
    },
    {
      "type": "function",
      "name": "approve",
      "inputs": [
        {
          "name": "spender",
          "type": "address",
          "internalType": "address"
        },
        {
          "name": "value",
          "type": "uint256",
          "internalType": "uint256"
        }
      ],
      "outputs": [
        {
          "name": "",
          "type": "bool",
          "internalType": "bool"
        }
      ],
      "stateMutability": "nonpayable"
    },
    {
      "type": "function",
      "name": "asset",
      "inputs": [],
      "outputs": [
        {
          "name": "",
          "type": "address",
          "internalType": "address"
        }
      ],
      "stateMutability": "view"
    },
    {
      "type": "function",
      "name": "balanceOf",
      "inputs": [
        {
          "name": "account",
          "type": "address",
          "internalType": "address"
        }
      ],
      "outputs": [
        {
          "name": "",
          "type": "uint256",
          "internalType": "uint256"
        }
      ],
      "stateMutability": "view"
    },
    {
      "type": "function",
      "name": "convertToAssets",
      "inputs": [
        {
          "name": "shares",
          "type": "uint256",
          "internalType": "uint256"
        }
      ],
      "outputs": [
        {
          "name": "",
          "type": "uint256",
          "internalType": "uint256"
        }
      ],
      "stateMutability": "view"
    },
    {
      "type": "function",
      "name": "convertToShares",
      "inputs": [
        {
          "name": "assets",
          "type": "uint256",
          "internalType": "uint256"
        }
      ],
      "outputs": [
        {
          "name": "",
          "type": "uint256",
          "internalType": "uint256"
        }
      ],
      "stateMutability": "view"
    },
    {
      "type": "function",
      "name": "decimals",
      "inputs": [],
      "outputs": [
        {
          "name": "",
          "type": "uint8",
          "internalType": "uint8"
        }
      ],
      "stateMutability": "view"
    },
    {
      "type": "function",
      "name": "deposit",
      "inputs": [
        {
          "name": "assets",
          "type": "uint256",
          "internalType": "uint256"
        },
        {
          "name": "receiver",
          "type": "address",
          "internalType": "address"
        }
      ],
      "outputs": [
        {
          "name": "",
          "type": "uint256",
          "internalType": "uint256"
        }
      ],
      "stateMutability": "nonpayable"
    },
    {
      "type": "function",
      "name": "drawdown",
      "inputs": [
        {
          "name": "receiver",
          "type": "address",
          "internalType": "address"
        },
        {
          "name": "amount",
          "type": "uint256",
          "internalType": "uint256"
        }
      ],
      "outputs": [],
      "stateMutability": "nonpayable"
    },
    {
      "type": "function",
      "name": "getRoleAdmin",
      "inputs": [
        {
          "name": "role",
          "type": "bytes32",
          "internalType": "bytes32"
        }
      ],
      "outputs": [
        {
          "name": "",
          "type": "bytes32",
          "internalType": "bytes32"
        }
      ],
      "stateMutability": "view"
    },
    {
      "type": "function",
      "name": "grantRole",
      "inputs": [
        {
          "name": "role",
          "type": "bytes32",
          "internalType": "bytes32"
        },
        {
          "name": "account",
          "type": "address",
          "internalType": "address"
        }
      ],
      "outputs": [],
      "stateMutability": "nonpayable"
    },
    {
      "type": "function",
      "name": "hasRole",
      "inputs": [
        {
          "name": "role",
          "type": "bytes32",
          "internalType": "bytes32"
        },
        {
          "name": "account",
          "type": "address",
          "internalType": "address"
        }
      ],
      "outputs": [
        {
          "name": "",
          "type": "bool",
          "internalType": "bool"
        }
      ],
      "stateMutability": "view"
    },
    {
      "type": "function",
      "name": "initialize",
      "inputs": [
        {
          "name": "_borrower",
          "type": "address",
          "internalType": "address"
        },
        {
          "name": "_asset",
          "type": "address",
          "internalType": "contract IERC20"
        },
        {
          "name": "_name",
          "type": "string",
          "internalType": "string"
        },
        {
          "name": "_symbol",
          "type": "string",
          "internalType": "string"
        }
      ],
      "outputs": [],
      "stateMutability": "nonpayable"
    },
    {
      "type": "function",
      "name": "maxDeposit",
      "inputs": [
        {
          "name": "",
          "type": "address",
          "internalType": "address"
        }
      ],
      "outputs": [
        {
          "name": "",
          "type": "uint256",
          "internalType": "uint256"
        }
      ],
      "stateMutability": "view"
    },
    {
      "type": "function",
      "name": "maxMint",
      "inputs": [
        {
          "name": "",
          "type": "address",
          "internalType": "address"
        }
      ],
      "outputs": [
        {
          "name": "",
          "type": "uint256",
          "internalType": "uint256"
        }
      ],
      "stateMutability": "view"
    },
    {
      "type": "function",
      "name": "maxRedeem",
      "inputs": [
        {
          "name": "owner",
          "type": "address",
          "internalType": "address"
        }
      ],
      "outputs": [
        {
          "name": "",
          "type": "uint256",
          "internalType": "uint256"
        }
      ],
      "stateMutability": "view"
    },
    {
      "type": "function",
      "name": "maxWithdraw",
      "inputs": [
        {
          "name": "owner",
          "type": "address",
          "internalType": "address"
        }
      ],
      "outputs": [
        {
          "name": "",
          "type": "uint256",
          "internalType": "uint256"
        }
      ],
      "stateMutability": "view"
    },
    {
      "type": "function",
      "name": "mint",
      "inputs": [
        {
          "name": "shares",
          "type": "uint256",
          "internalType": "uint256"
        },
        {
          "name": "receiver",
          "type": "address",
          "internalType": "address"
        }
      ],
      "outputs": [
        {
          "name": "",
          "type": "uint256",
          "internalType": "uint256"
        }
      ],
      "stateMutability": "nonpayable"
    },
    {
      "type": "function",
      "name": "name",
      "inputs": [],
      "outputs": [
        {
          "name": "",
          "type": "string",
          "internalType": "string"
        }
      ],
      "stateMutability": "view"
    },
    {
      "type": "function",
      "name": "previewDeposit",
      "inputs": [
        {
          "name": "assets",
          "type": "uint256",
          "internalType": "uint256"
        }
      ],
      "outputs": [
        {
          "name": "",
          "type": "uint256",
          "internalType": "uint256"
        }
      ],
      "stateMutability": "view"
    },
    {
      "type": "function",
      "name": "previewMint",
      "inputs": [
        {
          "name": "shares",
          "type": "uint256",
          "internalType": "uint256"
        }
      ],
      "outputs": [
        {
          "name": "",
          "type": "uint256",
          "internalType": "uint256"
        }
      ],
      "stateMutability": "view"
    },
    {
      "type": "function",
      "name": "previewRedeem",
      "inputs": [
        {
          "name": "shares",
          "type": "uint256",
          "internalType": "uint256"
        }
      ],
      "outputs": [
        {
          "name": "",
          "type": "uint256",
          "internalType": "uint256"
        }
      ],
      "stateMutability": "view"
    },
    {
      "type": "function",
      "name": "previewWithdraw",
      "inputs": [
        {
          "name": "assets",
          "type": "uint256",
          "internalType": "uint256"
        }
      ],
      "outputs": [
        {
          "name": "",
          "type": "uint256",
          "internalType": "uint256"
        }
      ],
      "stateMutability": "view"
    },
    {
      "type": "function",
      "name": "proxiableUUID",
      "inputs": [],
      "outputs": [
        {
          "name": "",
          "type": "bytes32",
          "internalType": "bytes32"
        }
      ],
      "stateMutability": "view"
    },
    {
      "type": "function",
      "name": "redeem",
      "inputs": [
        {
          "name": "shares",
          "type": "uint256",
          "internalType": "uint256"
        },
        {
          "name": "receiver",
          "type": "address",
          "internalType": "address"
        },
        {
          "name": "owner",
          "type": "address",
          "internalType": "address"
        }
      ],
      "outputs": [
        {
          "name": "",
          "type": "uint256",
          "internalType": "uint256"
        }
      ],
      "stateMutability": "nonpayable"
    },
    {
      "type": "function",
      "name": "renounceRole",
      "inputs": [
        {
          "name": "role",
          "type": "bytes32",
          "internalType": "bytes32"
        },
        {
          "name": "callerConfirmation",
          "type": "address",
          "internalType": "address"
        }
      ],
      "outputs": [],
      "stateMutability": "nonpayable"
    },
    {
      "type": "function",
      "name": "revokeRole",
      "inputs": [
        {
          "name": "role",
          "type": "bytes32",
          "internalType": "bytes32"
        },
        {
          "name": "account",
          "type": "address",
          "internalType": "address"
        }
      ],
      "outputs": [],
      "stateMutability": "nonpayable"
    },
    {
      "type": "function",
      "name": "supportsInterface",
      "inputs": [
        {
          "name": "interfaceId",
          "type": "bytes4",
          "internalType": "bytes4"
        }
      ],
      "outputs": [
        {
          "name": "",
          "type": "bool",
          "internalType": "bool"
        }
      ],
      "stateMutability": "view"
    },
    {
      "type": "function",
      "name": "symbol",
      "inputs": [],
      "outputs": [
        {
          "name": "",
          "type": "string",
          "internalType": "string"
        }
      ],
      "stateMutability": "view"
    },
    {
      "type": "function",
      "name": "totalAssets",
      "inputs": [],
      "outputs": [
        {
          "name": "",
          "type": "uint256",
          "internalType": "uint256"
        }
      ],
      "stateMutability": "view"
    },
    {
      "type": "function",
      "name": "totalSupply",
      "inputs": [],
      "outputs": [
        {
          "name": "",
          "type": "uint256",
          "internalType": "uint256"
        }
      ],
      "stateMutability": "view"
    },
    {
      "type": "function",
      "name": "transfer",
      "inputs": [
        {
          "name": "to",
          "type": "address",
          "internalType": "address"
        },
        {
          "name": "value",
          "type": "uint256",
          "internalType": "uint256"
        }
      ],
      "outputs": [
        {
          "name": "",
          "type": "bool",
          "internalType": "bool"
        }
      ],
      "stateMutability": "nonpayable"
    },
    {
      "type": "function",
      "name": "transferFrom",
      "inputs": [
        {
          "name": "from",
          "type": "address",
          "internalType": "address"
        },
        {
          "name": "to",
          "type": "address",
          "internalType": "address"
        },
        {
          "name": "value",
          "type": "uint256",
          "internalType": "uint256"
        }
      ],
      "outputs": [
        {
          "name": "",
          "type": "bool",
          "internalType": "bool"
        }
      ],
      "stateMutability": "nonpayable"
    },
    {
      "type": "function",
      "name": "upgradeToAndCall",
      "inputs": [
        {
          "name": "newImplementation",
          "type": "address",
          "internalType": "address"
        },
        {
          "name": "data",
          "type": "bytes",
          "internalType": "bytes"
        }
      ],
      "outputs": [],
      "stateMutability": "payable"
    },
    {
      "type": "function",
      "name": "withdraw",
      "inputs": [
        {
          "name": "assets",
          "type": "uint256",
          "internalType": "uint256"
        },
        {
          "name": "receiver",
          "type": "address",
          "internalType": "address"
        },
        {
          "name": "owner",
          "type": "address",
          "internalType": "address"
        }
      ],
      "outputs": [
        {
          "name": "",
          "type": "uint256",
          "internalType": "uint256"
        }
      ],
      "stateMutability": "nonpayable"
    },
    {
      "type": "event",
      "name": "Approval",
      "inputs": [
        {
          "name": "owner",
          "type": "address",
          "indexed": true,
          "internalType": "address"
        },
        {
          "name": "spender",
          "type": "address",
          "indexed": true,
          "internalType": "address"
        },
        {
          "name": "value",
          "type": "uint256",
          "indexed": false,
          "internalType": "uint256"
        }
      ],
      "anonymous": false
    },
    {
      "type": "event",
      "name": "Deposit",
      "inputs": [
        {
          "name": "sender",
          "type": "address",
          "indexed": true,
          "internalType": "address"
        },
        {
          "name": "owner",
          "type": "address",
          "indexed": true,
          "internalType": "address"
        },
        {
          "name": "assets",
          "type": "uint256",
          "indexed": false,
          "internalType": "uint256"
        },
        {
          "name": "shares",
          "type": "uint256",
          "indexed": false,
          "internalType": "uint256"
        }
      ],
      "anonymous": false
    },
    {
      "type": "event",
      "name": "Initialized",
      "inputs": [
        {
          "name": "version",
          "type": "uint64",
          "indexed": false,
          "internalType": "uint64"
        }
      ],
      "anonymous": false
    },
    {
      "type": "event",
      "name": "RoleAdminChanged",
      "inputs": [
        {
          "name": "role",
          "type": "bytes32",
          "indexed": true,
          "internalType": "bytes32"
        },
        {
          "name": "previousAdminRole",
          "type": "bytes32",
          "indexed": true,
          "internalType": "bytes32"
        },
        {
          "name": "newAdminRole",
          "type": "bytes32",
          "indexed": true,
          "internalType": "bytes32"
        }
      ],
      "anonymous": false
    },
    {
      "type": "event",
      "name": "RoleGranted",
      "inputs": [
        {
          "name": "role",
          "type": "bytes32",
          "indexed": true,
          "internalType": "bytes32"
        },
        {
          "name": "account",
          "type": "address",
          "indexed": true,
          "internalType": "address"
        },
        {
          "name": "sender",
          "type": "address",
          "indexed": true,
          "internalType": "address"
        }
      ],
      "anonymous": false
    },
    {
      "type": "event",
      "name": "RoleRevoked",
      "inputs": [
        {
          "name": "role",
          "type": "bytes32",
          "indexed": true,
          "internalType": "bytes32"
        },
        {
          "name": "account",
          "type": "address",
          "indexed": true,
          "internalType": "address"
        },
        {
          "name": "sender",
          "type": "address",
          "indexed": true,
          "internalType": "address"
        }
      ],
      "anonymous": false
    },
    {
      "type": "event",
      "name": "Transfer",
      "inputs": [
        {
          "name": "from",
          "type": "address",
          "indexed": true,
          "internalType": "address"
        },
        {
          "name": "to",
          "type": "address",
          "indexed": true,
          "internalType": "address"
        },
        {
          "name": "value",
          "type": "uint256",
          "indexed": false,
          "internalType": "uint256"
        }
      ],
      "anonymous": false
    },
    {
      "type": "event",
      "name": "Upgraded",
      "inputs": [
        {
          "name": "implementation",
          "type": "address",
          "indexed": true,
          "internalType": "address"
        }
      ],
      "anonymous": false
    },
    {
      "type": "event",
      "name": "Withdraw",
      "inputs": [
        {
          "name": "sender",
          "type": "address",
          "indexed": true,
          "internalType": "address"
        },
        {
          "name": "receiver",
          "type": "address",
          "indexed": true,
          "internalType": "address"
        },
        {
          "name": "owner",
          "type": "address",
          "indexed": true,
          "internalType": "address"
        },
        {
          "name": "assets",
          "type": "uint256",
          "indexed": false,
          "internalType": "uint256"
        },
        {
          "name": "shares",
          "type": "uint256",
          "indexed": false,
          "internalType": "uint256"
        }
      ],
      "anonymous": false
    },
    {
      "type": "error",
      "name": "AccessControlBadConfirmation",
      "inputs": []
    },
    {
      "type": "error",
      "name": "AccessControlUnauthorizedAccount",
      "inputs": [
        {
          "name": "account",
          "type": "address",
          "internalType": "address"
        },
        {
          "name": "neededRole",
          "type": "bytes32",
          "internalType": "bytes32"
        }
      ]
    },
    {
      "type": "error",
      "name": "AddressEmptyCode",
      "inputs": [
        {
          "name": "target",
          "type": "address",
          "internalType": "address"
        }
      ]
    },
    {
      "type": "error",
      "name": "AddressInsufficientBalance",
      "inputs": [
        {
          "name": "account",
          "type": "address",
          "internalType": "address"
        }
      ]
    },
    {
      "type": "error",
      "name": "CallerNotBorrower",
      "inputs": [
        {
          "name": "caller",
          "type": "address",
          "internalType": "address"
        }
      ]
    },
    {
      "type": "error",
      "name": "ERC1967InvalidImplementation",
      "inputs": [
        {
          "name": "implementation",
          "type": "address",
          "internalType": "address"
        }
      ]
    },
    {
      "type": "error",
      "name": "ERC1967NonPayable",
      "inputs": []
    },
    {
      "type": "error",
      "name": "ERC20InsufficientAllowance",
      "inputs": [
        {
          "name": "spender",
          "type": "address",
          "internalType": "address"
        },
        {
          "name": "allowance",
          "type": "uint256",
          "internalType": "uint256"
        },
        {
          "name": "needed",
          "type": "uint256",
          "internalType": "uint256"
        }
      ]
    },
    {
      "type": "error",
      "name": "ERC20InsufficientBalance",
      "inputs": [
        {
          "name": "sender",
          "type": "address",
          "internalType": "address"
        },
        {
          "name": "balance",
          "type": "uint256",
          "internalType": "uint256"
        },
        {
          "name": "needed",
          "type": "uint256",
          "internalType": "uint256"
        }
      ]
    },
    {
      "type": "error",
      "name": "ERC20InvalidApprover",
      "inputs": [
        {
          "name": "approver",
          "type": "address",
          "internalType": "address"
        }
      ]
    },
    {
      "type": "error",
      "name": "ERC20InvalidReceiver",
      "inputs": [
        {
          "name": "receiver",
          "type": "address",
          "internalType": "address"
        }
      ]
    },
    {
      "type": "error",
      "name": "ERC20InvalidSender",
      "inputs": [
        {
          "name": "sender",
          "type": "address",
          "internalType": "address"
        }
      ]
    },
    {
      "type": "error",
      "name": "ERC20InvalidSpender",
      "inputs": [
        {
          "name": "spender",
          "type": "address",
          "internalType": "address"
        }
      ]
    },
    {
      "type": "error",
      "name": "ERC4626ExceededMaxDeposit",
      "inputs": [
        {
          "name": "receiver",
          "type": "address",
          "internalType": "address"
        },
        {
          "name": "assets",
          "type": "uint256",
          "internalType": "uint256"
        },
        {
          "name": "max",
          "type": "uint256",
          "internalType": "uint256"
        }
      ]
    },
    {
      "type": "error",
      "name": "ERC4626ExceededMaxMint",
      "inputs": [
        {
          "name": "receiver",
          "type": "address",
          "internalType": "address"
        },
        {
          "name": "shares",
          "type": "uint256",
          "internalType": "uint256"
        },
        {
          "name": "max",
          "type": "uint256",
          "internalType": "uint256"
        }
      ]
    },
    {
      "type": "error",
      "name": "ERC4626ExceededMaxRedeem",
      "inputs": [
        {
          "name": "owner",
          "type": "address",
          "internalType": "address"
        },
        {
          "name": "shares",
          "type": "uint256",
          "internalType": "uint256"
        },
        {
          "name": "max",
          "type": "uint256",
          "internalType": "uint256"
        }
      ]
    },
    {
      "type": "error",
      "name": "ERC4626ExceededMaxWithdraw",
      "inputs": [
        {
          "name": "owner",
          "type": "address",
          "internalType": "address"
        },
        {
          "name": "assets",
          "type": "uint256",
          "internalType": "uint256"
        },
        {
          "name": "max",
          "type": "uint256",
          "internalType": "uint256"
        }
      ]
    },
    {
      "type": "error",
      "name": "FailedInnerCall",
      "inputs": []
    },
    {
      "type": "error",
      "name": "InvalidInitialization",
      "inputs": []
    },
    {
      "type": "error",
      "name": "MathOverflowedMulDiv",
      "inputs": []
    },
    {
      "type": "error",
      "name": "NotInitializing",
      "inputs": []
    },
    {
      "type": "error",
      "name": "SafeERC20FailedOperation",
      "inputs": [
        {
          "name": "token",
          "type": "address",
          "internalType": "address"
        }
      ]
    },
    {
      "type": "error",
      "name": "UUPSUnauthorizedCallContext",
      "inputs": []
    },
    {
      "type": "error",
      "name": "UUPSUnsupportedProxiableUUID",
      "inputs": [
        {
          "name": "slot",
          "type": "bytes32",
          "internalType": "bytes32"
        }
      ]
    }
  ],
  "bytecode": {
    "object": "0x60a06040523060805234801561001457600080fd5b5060805161247961003e600039600081816110b3015281816110dc015261123f01526124796000f3fe6080604052600436106102305760003560e01c80636acab9da1161012e578063b460af94116100ab578063d547741f1161006f578063d547741f1461067a578063d905777e1461069a578063dd62ed3e146106ba578063ecd00261146106da578063ef8b30f71461063a57600080fd5b8063b460af94146105fa578063ba0876521461061a578063c63d75b614610475578063c6e6f5921461063a578063ce96cb771461065a57600080fd5b806395d89b41116100f257806395d89b411461055f578063a217fddf14610574578063a9059cbb14610589578063ad3cb1cc146105a9578063b3d7f6b9146105da57600080fd5b80636acab9da146104bf5780636e553f65146104df57806370a08231146104ff57806391d148541461051f57806394bf804d1461053f57600080fd5b806323b872dd116101bc57806338d52e0f1161018057806338d52e0f14610440578063402d267d146104755780634cdad506146102af5780634f1ef2861461049757806352d1902d146104aa57600080fd5b806323b872dd14610399578063248a9ca3146103b95780632f2ff15d146103d9578063313ce567146103f957806336568abe1461042057600080fd5b8063095ea7b311610203578063095ea7b3146102cf5780630a28a477146102ef5780630e7b949e1461030f57806318160ddd146103435780632016a0d21461037757600080fd5b806301e1d1141461023557806301ffc9a71461025d57806306fdde031461028d57806307a2d13a146102af575b600080fd5b34801561024157600080fd5b5061024a61070e565b6040519081526020015b60405180910390f35b34801561026957600080fd5b5061027d610278366004611cfe565b610792565b6040519015158152602001610254565b34801561029957600080fd5b506102a26107c9565b6040516102549190611d4c565b3480156102bb57600080fd5b5061024a6102ca366004611d7f565b61088c565b3480156102db57600080fd5b5061027d6102ea366004611dad565b610899565b3480156102fb57600080fd5b5061024a61030a366004611d7f565b6108b1565b34801561031b57600080fd5b5061024a7f2344277e405079ec07749d374ba0b5862a4e45a6a05ac889dbb4a991c6f9354d81565b34801561034f57600080fd5b507f52c63247e1f47db19d5ce0460030c497f067ca4cebf71ba98eeadabe20bace025461024a565b34801561038357600080fd5b50610397610392366004611e85565b6108be565b005b3480156103a557600080fd5b5061027d6103b4366004611f0e565b610a49565b3480156103c557600080fd5b5061024a6103d4366004611d7f565b610a6f565b3480156103e557600080fd5b506103976103f4366004611f4f565b610a91565b34801561040557600080fd5b5061040e610ab3565b60405160ff9091168152602001610254565b34801561042c57600080fd5b5061039761043b366004611f4f565b610adf565b34801561044c57600080fd5b50600080516020612424833981519152546040516001600160a01b039091168152602001610254565b34801561048157600080fd5b5061024a610490366004611f7f565b5060001990565b6103976104a5366004611f9c565b610b17565b3480156104b657600080fd5b5061024a610b36565b3480156104cb57600080fd5b506103976104da366004611dad565b610b53565b3480156104eb57600080fd5b5061024a6104fa366004611f4f565b610ba6565b34801561050b57600080fd5b5061024a61051a366004611f7f565b610bda565b34801561052b57600080fd5b5061027d61053a366004611f4f565b610c02565b34801561054b57600080fd5b5061024a61055a366004611f4f565b610c3a565b34801561056b57600080fd5b506102a2610c58565b34801561058057600080fd5b5061024a600081565b34801561059557600080fd5b5061027d6105a4366004611dad565b610c97565b3480156105b557600080fd5b506102a2604051806040016040528060058152602001640352e302e360dc1b81525081565b3480156105e657600080fd5b5061024a6105f5366004611d7f565b610ca5565b34801561060657600080fd5b5061024a610615366004612000565b610cb2565b34801561062657600080fd5b5061024a610635366004612000565b610d0a565b34801561064657600080fd5b5061024a610655366004611d7f565b610d59565b34801561066657600080fd5b5061024a610675366004611f7f565b610d66565b34801561068657600080fd5b50610397610695366004611f4f565b610d7b565b3480156106a657600080fd5b5061024a6106b5366004611f7f565b610d97565b3480156106c657600080fd5b5061024a6106d5366004612042565b610da2565b3480156106e657600080fd5b5061024a7ffc425f2263d0df187444b70e47283d622c70181c5baebb1306a01edba1ce184c81565b60008060008051602061242483398151915280546040516370a0823160e01b81523060048201529192506001600160a01b0316906370a0823190602401602060405180830381865afa158015610768573d6000803e3d6000fd5b505050506040513d601f19601f8201168201806040525081019061078c9190612070565b91505090565b60006001600160e01b03198216637965db0b60e01b14806107c357506301ffc9a760e01b6001600160e01b03198316145b92915050565b7f52c63247e1f47db19d5ce0460030c497f067ca4cebf71ba98eeadabe20bace0380546060916000805160206123c48339815191529161080890612089565b80601f016020809104026020016040519081016040528092919081815260200182805461083490612089565b80156108815780601f1061085657610100808354040283529160200191610881565b820191906000526020600020905b81548152906001019060200180831161086457829003601f168201915b505050505091505090565b60006107c3826000610dec565b6000336108a7818585610e45565b5060019392505050565b60006107c3826001610e52565b7ff0c57e16840df040f15088dc2f81fe391c3923bec73e23a9662efc9c229c6a008054600160401b810460ff16159067ffffffffffffffff166000811580156109045750825b905060008267ffffffffffffffff1660011480156109215750303b155b90508115801561092f575080155b1561094d5760405163f92ee8a960e01b815260040160405180910390fd5b845467ffffffffffffffff19166001178555831561097757845460ff60401b1916600160401b1785555b61098088610ea1565b61098a8787610eb5565b610992610ec7565b61099a610ec7565b6109a2610ec7565b6109cc7f2344277e405079ec07749d374ba0b5862a4e45a6a05ac889dbb4a991c6f9354d8a610ed1565b506109f77ffc425f2263d0df187444b70e47283d622c70181c5baebb1306a01edba1ce184c33610ed1565b508315610a3e57845460ff60401b19168555604051600181527fc7f505b2f371ae2175ee4913f4499e1f2633a7b5936321eed1cdaeb6115181d29060200160405180910390a15b505050505050505050565b600033610a57858285610f76565b610a62858585610fc3565b60019150505b9392505050565b6000908152600080516020612404833981519152602052604090206001015490565b610a9a82610a6f565b610aa381611022565b610aad8383610ed1565b50505050565b60008060008051602061242483398151915290506000815461078c9190600160a01b900460ff166120d9565b6001600160a01b0381163314610b085760405163334bd91960e11b815260040160405180910390fd5b610b12828261102c565b505050565b610b1f6110a8565b610b288261114d565b610b328282611177565b5050565b6000610b40611234565b506000805160206123e483398151915290565b7f2344277e405079ec07749d374ba0b5862a4e45a6a05ac889dbb4a991c6f9354d610b7d81611022565b610b12610b9f600080516020612424833981519152546001600160a01b031690565b848461127d565b6000600019610bb9565b60405180910390fd5b6000610bc485610d59565b9050610bd2338587846112dc565b949350505050565b6001600160a01b031660009081526000805160206123c4833981519152602052604090205490565b6000918252600080516020612404833981519152602090815260408084206001600160a01b0393909316845291905290205460ff1690565b60006000196000610c4a85610ca5565b9050610bd2338583886112dc565b7f52c63247e1f47db19d5ce0460030c497f067ca4cebf71ba98eeadabe20bace0480546060916000805160206123c48339815191529161080890612089565b6000336108a7818585610fc3565b60006107c3826001610dec565b600080610cbe83610d66565b905080851115610ce757828582604051633fa733bb60e21b8152600401610bb0939291906120f2565b6000610cf2866108b1565b9050610d013386868985611369565b95945050505050565b600080610d1683610d97565b905080851115610d3f57828582604051632e52afbb60e21b8152600401610bb0939291906120f2565b6000610d4a8661088c565b9050610d01338686848a611369565b60006107c3826000610e52565b60006107c3610d7483610bda565b6000610dec565b610d8482610a6f565b610d8d81611022565b610aad838361102c565b60006107c382610bda565b6001600160a01b0391821660009081527f52c63247e1f47db19d5ce0460030c497f067ca4cebf71ba98eeadabe20bace016020908152604080832093909416825291909152205490565b6000610a68610df961070e565b610e04906001612113565b610e106000600a61220a565b7f52c63247e1f47db19d5ce0460030c497f067ca4cebf71ba98eeadabe20bace0254610e3c9190612113565b8591908561141e565b610b12838383600161146d565b6000610a68610e6282600a61220a565b7f52c63247e1f47db19d5ce0460030c497f067ca4cebf71ba98eeadabe20bace0254610e8e9190612113565b610e9661070e565b610e3c906001612113565b610ea961154c565b610eb281611595565b50565b610ebd61154c565b610b328282611607565b610ecf61154c565b565b6000600080516020612404833981519152610eec8484610c02565b610f6c576000848152602082815260408083206001600160a01b03871684529091529020805460ff19166001179055610f223390565b6001600160a01b0316836001600160a01b0316857f2f8788117e7eff1d82e926ec794901d17c78024a50270940304540a733656f0d60405160405180910390a460019150506107c3565b60009150506107c3565b6000610f828484610da2565b90506000198114610aad5781811015610fb457828183604051637dc7a0d960e11b8152600401610bb0939291906120f2565b610aad8484848403600061146d565b6001600160a01b038316610fed57604051634b637e8f60e11b815260006004820152602401610bb0565b6001600160a01b0382166110175760405163ec442f0560e01b815260006004820152602401610bb0565b610b12838383611658565b610eb28133611783565b60006000805160206124048339815191526110478484610c02565b15610f6c576000848152602082815260408083206001600160a01b0387168085529252808320805460ff1916905551339287917ff6391f5c32d9c69d2a47ea670b442974b53935d1edc7fd64eb21e047a839171b9190a460019150506107c3565b306001600160a01b037f000000000000000000000000000000000000000000000000000000000000000016148061112f57507f00000000000000000000000000000000000000000000000000000000000000006001600160a01b03166111236000805160206123e4833981519152546001600160a01b031690565b6001600160a01b031614155b15610ecf5760405163703e46dd60e11b815260040160405180910390fd5b7ffc425f2263d0df187444b70e47283d622c70181c5baebb1306a01edba1ce184c610b3281611022565b816001600160a01b03166352d1902d6040518163ffffffff1660e01b8152600401602060405180830381865afa9250505080156111d1575060408051601f3d908101601f191682019092526111ce91810190612070565b60015b6111f957604051634c9c8ce360e01b81526001600160a01b0383166004820152602401610bb0565b6000805160206123e4833981519152811461122a57604051632a87526960e21b815260048101829052602401610bb0565b610b1283836117bc565b306001600160a01b037f00000000000000000000000000000000000000000000000000000000000000001614610ecf5760405163703e46dd60e11b815260040160405180910390fd5b6040516001600160a01b03838116602483015260448201839052610b1291859182169063a9059cbb906064015b604051602081830303815290604052915060e01b6020820180516001600160e01b038381831617835250505050611812565b6000805160206124248339815191528054611302906001600160a01b0316863086611875565b61130c84836118ae565b836001600160a01b0316856001600160a01b03167fdcbc1c05240f31ff3ad067ef1ee35ce4997762752e3a095284754544f4c709d7858560405161135a929190918252602082015260400190565b60405180910390a35050505050565b6000805160206124248339815191526001600160a01b038681169085161461139657611396848784610f76565b6113a084836118e4565b80546113b6906001600160a01b0316868561127d565b836001600160a01b0316856001600160a01b0316876001600160a01b03167ffbde797d201c681b91056529119e0b02407c7bb96a4a2c75c01fc9667232c8db868660405161140e929190918252602082015260400190565b60405180910390a4505050505050565b60008061142c86868661191a565b9050611437836119de565b801561145357506000848061144e5761144e612219565b868809115b15610d0157611463600182612113565b9695505050505050565b6000805160206123c48339815191526001600160a01b0385166114a65760405163e602df0560e01b815260006004820152602401610bb0565b6001600160a01b0384166114d057604051634a1406b160e11b815260006004820152602401610bb0565b6001600160a01b0380861660009081526001830160209081526040808320938816835292905220839055811561154557836001600160a01b0316856001600160a01b03167f8c5be1e5ebec7d5bd14f71427d1e84f3dd0314c0f7b2291e5b200ac8c7c3b9258560405161135a91815260200190565b5050505050565b7ff0c57e16840df040f15088dc2f81fe391c3923bec73e23a9662efc9c229c6a0054600160401b900460ff16610ecf57604051631afcd79f60e31b815260040160405180910390fd5b61159d61154c565b6000805160206124248339815191526000806115b884611a0b565b91509150816115c85760126115ca565b805b83546001600160a81b031916600160a01b60ff92909216919091026001600160a01b031916176001600160a01b0394909416939093179091555050565b61160f61154c565b6000805160206123c48339815191527f52c63247e1f47db19d5ce0460030c497f067ca4cebf71ba98eeadabe20bace03611649848261227f565b5060048101610aad838261227f565b6000805160206123c48339815191526001600160a01b03841661169457818160020160008282546116899190612113565b909155506116f39050565b6001600160a01b038416600090815260208290526040902054828110156116d45784818460405163391434e360e21b8152600401610bb0939291906120f2565b6001600160a01b03851660009081526020839052604090209083900390555b6001600160a01b038316611711576002810180548390039055611730565b6001600160a01b03831660009081526020829052604090208054830190555b826001600160a01b0316846001600160a01b03167fddf252ad1be2c89b69c2b068fc378daa952ba7f163c4a11628f55a4df523b3ef8460405161177591815260200190565b60405180910390a350505050565b61178d8282610c02565b610b325760405163e2517d3f60e01b81526001600160a01b038216600482015260248101839052604401610bb0565b6117c582611ae7565b6040516001600160a01b038316907fbc7cd75a20ee27fd9adebab32041f755214dbc6bffa90cc0225b39da2e5c2d3b90600090a280511561180a57610b128282611b4c565b610b32611bb9565b60006118276001600160a01b03841683611bd8565b9050805160001415801561184c57508080602001905181019061184a919061233f565b155b15610b1257604051635274afe760e01b81526001600160a01b0384166004820152602401610bb0565b6040516001600160a01b038481166024830152838116604483015260648201839052610aad9186918216906323b872dd906084016112aa565b6001600160a01b0382166118d85760405163ec442f0560e01b815260006004820152602401610bb0565b610b3260008383611658565b6001600160a01b03821661190e57604051634b637e8f60e11b815260006004820152602401610bb0565b610b3282600083611658565b60008383028160001985870982811083820303915050806000036119515783828161194757611947612219565b0492505050610a68565b8084116119715760405163227bc15360e01b815260040160405180910390fd5b6000848688096000868103871696879004966002600389028118808a02820302808a02820302808a02820302808a02820302808a02820302808a02909103029181900381900460010186841190950394909402919094039290920491909117919091029150509392505050565b600060028260038111156119f4576119f4612361565b6119fe9190612377565b60ff166001149050919050565b60408051600481526024810182526020810180516001600160e01b031663313ce56760e01b17905290516000918291829182916001600160a01b03871691611a52916123a7565b600060405180830381855afa9150503d8060008114611a8d576040519150601f19603f3d011682016040523d82523d6000602084013e611a92565b606091505b5091509150818015611aa657506020815110155b15611ada57600081806020019051810190611ac19190612070565b905060ff8111611ad8576001969095509350505050565b505b5060009485945092505050565b806001600160a01b03163b600003611b1d57604051634c9c8ce360e01b81526001600160a01b0382166004820152602401610bb0565b6000805160206123e483398151915280546001600160a01b0319166001600160a01b0392909216919091179055565b6060600080846001600160a01b031684604051611b6991906123a7565b600060405180830381855af49150503d8060008114611ba4576040519150601f19603f3d011682016040523d82523d6000602084013e611ba9565b606091505b5091509150610d01858383611be6565b3415610ecf5760405163b398979f60e01b815260040160405180910390fd5b6060610a6883836000611c42565b606082611bfb57611bf682611cd5565b610a68565b8151158015611c1257506001600160a01b0384163b155b15611c3b57604051639996b31560e01b81526001600160a01b0385166004820152602401610bb0565b5080610a68565b606081471015611c675760405163cd78605960e01b8152306004820152602401610bb0565b600080856001600160a01b03168486604051611c8391906123a7565b60006040518083038185875af1925050503d8060008114611cc0576040519150601f19603f3d011682016040523d82523d6000602084013e611cc5565b606091505b5091509150611463868383611be6565b805115611ce55780518082602001fd5b604051630a12f52160e11b815260040160405180910390fd5b600060208284031215611d1057600080fd5b81356001600160e01b031981168114610a6857600080fd5b60005b83811015611d43578181015183820152602001611d2b565b50506000910152565b6020815260008251806020840152611d6b816040850160208701611d28565b601f01601f19169190910160400192915050565b600060208284031215611d9157600080fd5b5035919050565b6001600160a01b0381168114610eb257600080fd5b60008060408385031215611dc057600080fd5b8235611dcb81611d98565b946020939093013593505050565b634e487b7160e01b600052604160045260246000fd5b600067ffffffffffffffff80841115611e0a57611e0a611dd9565b604051601f8501601f19908116603f01168101908282118183101715611e3257611e32611dd9565b81604052809350858152868686011115611e4b57600080fd5b858560208301376000602087830101525050509392505050565b600082601f830112611e7657600080fd5b610a6883833560208501611def565b60008060008060808587031215611e9b57600080fd5b8435611ea681611d98565b93506020850135611eb681611d98565b9250604085013567ffffffffffffffff80821115611ed357600080fd5b611edf88838901611e65565b93506060870135915080821115611ef557600080fd5b50611f0287828801611e65565b91505092959194509250565b600080600060608486031215611f2357600080fd5b8335611f2e81611d98565b92506020840135611f3e81611d98565b929592945050506040919091013590565b60008060408385031215611f6257600080fd5b823591506020830135611f7481611d98565b809150509250929050565b600060208284031215611f9157600080fd5b8135610a6881611d98565b60008060408385031215611faf57600080fd5b8235611fba81611d98565b9150602083013567ffffffffffffffff811115611fd657600080fd5b8301601f81018513611fe757600080fd5b611ff685823560208401611def565b9150509250929050565b60008060006060848603121561201557600080fd5b83359250602084013561202781611d98565b9150604084013561203781611d98565b809150509250925092565b6000806040838503121561205557600080fd5b823561206081611d98565b91506020830135611f7481611d98565b60006020828403121561208257600080fd5b5051919050565b600181811c9082168061209d57607f821691505b6020821081036120bd57634e487b7160e01b600052602260045260246000fd5b50919050565b634e487b7160e01b600052601160045260246000fd5b60ff81811683821601908111156107c3576107c36120c3565b6001600160a01b039390931683526020830191909152604082015260600190565b808201808211156107c3576107c36120c3565b600181815b80851115612161578160001904821115612147576121476120c3565b8085161561215457918102915b93841c939080029061212b565b509250929050565b600082612178575060016107c3565b81612185575060006107c3565b816001811461219b57600281146121a5576121c1565b60019150506107c3565b60ff8411156121b6576121b66120c3565b50506001821b6107c3565b5060208310610133831016604e8410600b84101617156121e4575081810a6107c3565b6121ee8383612126565b8060001904821115612202576122026120c3565b029392505050565b6000610a6860ff841683612169565b634e487b7160e01b600052601260045260246000fd5b601f821115610b12576000816000526020600020601f850160051c810160208610156122585750805b601f850160051c820191505b8181101561227757828155600101612264565b505050505050565b815167ffffffffffffffff81111561229957612299611dd9565b6122ad816122a78454612089565b8461222f565b602080601f8311600181146122e257600084156122ca5750858301515b600019600386901b1c1916600185901b178555612277565b600085815260208120601f198616915b82811015612311578886015182559484019460019091019084016122f2565b508582101561232f5787850151600019600388901b60f8161c191681555b5050505050600190811b01905550565b60006020828403121561235157600080fd5b81518015158114610a6857600080fd5b634e487b7160e01b600052602160045260246000fd5b600060ff83168061239857634e487b7160e01b600052601260045260246000fd5b8060ff84160691505092915050565b600082516123b9818460208701611d28565b919091019291505056fe52c63247e1f47db19d5ce0460030c497f067ca4cebf71ba98eeadabe20bace00360894a13ba1a3210667c828492db98dca3e2076cc3735a920a3ca505d382bbc02dd7bc7dec4dceedda775e58dd541e08a116c6c53815c0bd028192f7b6268000773e532dfede91f04b12a73d3d2acd361424f41f76b4fb79f090161e36b4e00a2646970667358221220f44af0e9e38c90d6b0673770bc20ac375da5d693bf9eefb32a3f61ede6617ed464736f6c63430008180033",
    "linkReferences": {}
  },
  "methodIdentifiers": {
    "BORROWER_ROLE()": "0e7b949e",
    "DEFAULT_ADMIN_ROLE()": "a217fddf",
    "DEPLOYER_ROLE()": "ecd00261",
    "UPGRADE_INTERFACE_VERSION()": "ad3cb1cc",
    "allowance(address,address)": "dd62ed3e",
    "approve(address,uint256)": "095ea7b3",
    "asset()": "38d52e0f",
    "balanceOf(address)": "70a08231",
    "convertToAssets(uint256)": "07a2d13a",
    "convertToShares(uint256)": "c6e6f592",
    "decimals()": "313ce567",
    "deposit(uint256,address)": "6e553f65",
    "drawdown(address,uint256)": "6acab9da",
    "getRoleAdmin(bytes32)": "248a9ca3",
    "grantRole(bytes32,address)": "2f2ff15d",
    "hasRole(bytes32,address)": "91d14854",
    "initialize(address,address,string,string)": "2016a0d2",
    "maxDeposit(address)": "402d267d",
    "maxMint(address)": "c63d75b6",
    "maxRedeem(address)": "d905777e",
    "maxWithdraw(address)": "ce96cb77",
    "mint(uint256,address)": "94bf804d",
    "name()": "06fdde03",
    "previewDeposit(uint256)": "ef8b30f7",
    "previewMint(uint256)": "b3d7f6b9",
    "previewRedeem(uint256)": "4cdad506",
    "previewWithdraw(uint256)": "0a28a477",
    "proxiableUUID()": "52d1902d",
    "redeem(uint256,address,address)": "ba087652",
    "renounceRole(bytes32,address)": "36568abe",
    "revokeRole(bytes32,address)": "d547741f",
    "supportsInterface(bytes4)": "01ffc9a7",
    "symbol()": "95d89b41",
    "totalAssets()": "01e1d114",
    "totalSupply()": "18160ddd",
    "transfer(address,uint256)": "a9059cbb",
    "transferFrom(address,address,uint256)": "23b872dd",
    "upgradeToAndCall(address,bytes)": "4f1ef286",
    "withdraw(uint256,address,address)": "b460af94"
  },
  "storageLayout": {
    "storage": [],
    "types": {}
  },
  "id": 47
}